:0C800000F8B500BFF8BC08BC9E467047F5
:10800C0008B5064B044613B10021AFF30080044BB6
:10801C001B6803B19847204600F0B4F8000000003C
:10802C00D481010010B5054C237833B9044B13B13E
:10803C000448AFF300800123237010BDB48101000C
:10804C0000000000A881000008B5034B1BB10349D8
:10805C000348AFF3008008BD00000000B8810100A8
:10806C00A8810000A3F5803A704700BF174B002B86
:10807C0008BF134B9D46FFF7F5FF00218B460F46BB
:10808C001348144A121A00F050F80E4B002B00D073
:10809C0098470D4B002B00D098470020002104007E
:1080AC000D000D48002802D00C48AFF3008000F002
:1080BC0045F82000290000F033F8FFF7A1FF00BFBE
:1080CC00000008000000000000000000000000009C
:1080DC00B4810100D8810100000000000000000004
:1080EC0080B400AF0C4B1B680B4A23F00F031360DA
:1080FC00094B1B68084A43F002031360064B1B68CC
:10810C00054A43F4E0631360044B01221A7000BF6C
:10811C00BD465DF8047B7047003C0240D0810100F5
:10812C0080B500AFFFF7DCFFFEE702440346934245
:10813C0000D1704703F8011BF9E7000070B50D4D35
:10814C000D4C641BA4100026A64209D10B4D0C4CFF
:10815C00FFF750FF641BA4100026A64205D170BD8A
:10816C0055F8043B98470136EEE755F8043B984721
:10817C000136F2E7AC810100AC810100AC81010059
:06818C00B0810100FEE7D6
:0C819400F8B500BFF8BC08BC9E46704760
:0881A000D0FEFF7F010000008A
:0481A80000000000D3
:020000021000EC
:0481AC0055800000FA
:0481B000318000001A
:040000030000807900
:00000001FF
